{
  "address": "0xCf7Ed3AccA5a467e9e704C703E8D87F634fB0Fc9",
  "abi": [
    {
      "inputs": [
        {
          "internalType": "address",
          "name": "vrfCoordinatorV2",
          "type": "address"
        },
        {
          "internalType": "uint64",
          "name": "subscriptionId",
          "type": "uint64"
        },
        {
          "internalType": "bytes32",
          "name": "gasLane",
          "type": "bytes32"
        },
        {
          "internalType": "uint256",
          "name": "interval",
          "type": "uint256"
        },
        {
          "internalType": "uint256",
          "name": "entranceFee",
          "type": "uint256"
        },
        {
          "internalType": "uint32",
          "name": "callbackGasLimit",
          "type": "uint32"
        }
      ],
      "stateMutability": "nonpayable",
      "type": "constructor"
    },
    {
      "inputs": [
        {
          "internalType": "address",
          "name": "have",
          "type": "address"
        },
        {
          "internalType": "address",
          "name": "want",
          "type": "address"
        }
      ],
      "name": "OnlyCoordinatorCanFulfill",
      "type": "error"
    },
    {
      "inputs": [],
      "name": "Raffle__RaffleNotOpen",
      "type": "error"
    },
    {
      "inputs": [],
      "name": "Raffle__SendMoreToEnterRaffle",
      "type": "error"
    },
    {
      "inputs": [],
      "name": "Raffle__TransferFailed",
      "type": "error"
    },
    {
      "inputs": [
        {
          "internalType": "uint256",
          "name": "currentBalance",
          "type": "uint256"
        },
        {
          "internalType": "uint256",
          "name": "numPlayers",
          "type": "uint256"
        },
        {
          "internalType": "uint256",
          "name": "raffleState",
          "type": "uint256"
        }
      ],
      "name": "Raffle__UpkeepNotNeeded",
      "type": "error"
    },
    {
      "anonymous": false,
      "inputs": [
        {
          "indexed": true,
          "internalType": "address",
          "name": "player",
          "type": "address"
        }
      ],
      "name": "RaffleEnter",
      "type": "event"
    },
    {
      "anonymous": false,
      "inputs": [
        {
          "indexed": true,
          "internalType": "uint256",
          "name": "requestId",
          "type": "uint256"
        }
      ],
      "name": "RequestedRaffleWinner",
      "type": "event"
    },
    {
      "anonymous": false,
      "inputs": [
        {
          "indexed": true,
          "internalType": "address",
          "name": "player",
          "type": "address"
        }
      ],
      "name": "WinnerPicked",
      "type": "event"
    },
    {
      "inputs": [
        {
          "internalType": "bytes",
          "name": "",
          "type": "bytes"
        }
      ],
      "name": "checkUpkeep",
      "outputs": [
        {
          "internalType": "bool",
          "name": "upkeepNeeded",
          "type": "bool"
        },
        {
          "internalType": "bytes",
          "name": "",
          "type": "bytes"
        }
      ],
      "stateMutability": "view",
      "type": "function"
    },
    {
      "inputs": [],
      "name": "enterRaffle",
      "outputs": [],
      "stateMutability": "payable",
      "type": "function"
    },
    {
      "inputs": [],
      "name": "getEntranceFee",
      "outputs": [
        {
          "internalType": "uint256",
          "name": "",
          "type": "uint256"
        }
      ],
      "stateMutability": "view",
      "type": "function"
    },
    {
      "inputs": [],
      "name": "getInterval",
      "outputs": [
        {
          "internalType": "uint256",
          "name": "",
          "type": "uint256"
        }
      ],
      "stateMutability": "view",
      "type": "function"
    },
    {
      "inputs": [],
      "name": "getLastTimeStamp",
      "outputs": [
        {
          "internalType": "uint256",
          "name": "",
          "type": "uint256"
        }
      ],
      "stateMutability": "view",
      "type": "function"
    },
    {
      "inputs": [],
      "name": "getNumWords",
      "outputs": [
        {
          "internalType": "uint256",
          "name": "",
          "type": "uint256"
        }
      ],
      "stateMutability": "pure",
      "type": "function"
    },
    {
      "inputs": [],
      "name": "getNumberOfPlayers",
      "outputs": [
        {
          "internalType": "uint256",
          "name": "",
          "type": "uint256"
        }
      ],
      "stateMutability": "view",
      "type": "function"
    },
    {
      "inputs": [
        {
          "internalType": "uint256",
          "name": "index",
          "type": "uint256"
        }
      ],
      "name": "getPlayer",
      "outputs": [
        {
          "internalType": "address",
          "name": "",
          "type": "address"
        }
      ],
      "stateMutability": "view",
      "type": "function"
    },
    {
      "inputs": [],
      "name": "getRaffleState",
      "outputs": [
        {
          "internalType": "enum Raffle.RaffleState",
          "name": "",
          "type": "uint8"
        }
      ],
      "stateMutability": "view",
      "type": "function"
    },
    {
      "inputs": [],
      "name": "getRecentWinner",
      "outputs": [
        {
          "internalType": "address",
          "name": "",
          "type": "address"
        }
      ],
      "stateMutability": "view",
      "type": "function"
    },
    {
      "inputs": [],
      "name": "getRequestConfirmations",
      "outputs": [
        {
          "internalType": "uint256",
          "name": "",
          "type": "uint256"
        }
      ],
      "stateMutability": "pure",
      "type": "function"
    },
    {
      "inputs": [
        {
          "internalType": "bytes",
          "name": "",
          "type": "bytes"
        }
      ],
      "name": "performUpkeep",
      "outputs": [],
      "stateMutability": "nonpayable",
      "type": "function"
    },
    {
      "inputs": [
        {
          "internalType": "uint256",
          "name": "requestId",
          "type": "uint256"
        },
        {
          "internalType": "uint256[]",
          "name": "randomWords",
          "type": "uint256[]"
        }
      ],
      "name": "rawFulfillRandomWords",
      "outputs": [],
      "stateMutability": "nonpayable",
      "type": "function"
    }
  ],
  "transactionHash": "0xa653a1d64c1d58af22db1ee04aa2ffac2d5422cf621d0b4b1e698f4210607b72",
  "args": [
    "0x5FbDB2315678afecb367f032d93F642f64180aa3",
    "1",
    "0x79d3d8832d904592c0bf9818b621522c988bb8b0c05cdc3b15aea1b6e8db0c15",
    "30",
    "10000000000000000",
    "500000"
  ],
  "numDeployments": 1,
  "solcInputHash": "6bcda76a72da537e00ef085f04d1ec7f",
  "bytecode": "0x6101606040523480156200001257600080fd5b506040516200184138038062001841833981810160405281019062000038919062000294565b858073ffffffffffffffffffffffffffffffffffffffff1660808173ffffffffffffffffffffffffffffffffffffffff1681525050508573ffffffffffffffffffffffffffffffffffffffff1660a08173ffffffffffffffffffffffffffffffffffffffff16815250508360e081815250508261012081815250508467ffffffffffffffff1660c08167ffffffffffffffff16815250508161014081815250506000600360006101000a81548160ff0219169083600181111562000101576200010062000330565b5b0217905550426000819055508063ffffffff166101008163ffffffff16815250505050505050506200035f565b600080fd5b600073ffffffffffffffffffffffffffffffffffffffff82169050919050565b6000620001608262000133565b9050919050565b620001728162000153565b81146200017e57600080fd5b50565b600081519050620001928162000167565b92915050565b600067ffffffffffffffff82169050919050565b620001b78162000198565b8114620001c357600080fd5b50565b600081519050620001d781620001ac565b92915050565b6000819050919050565b620001f281620001dd565b8114620001fe57600080fd5b50565b6000815190506200021281620001e7565b92915050565b6000819050919050565b6200022d8162000218565b81146200023957600080fd5b50565b6000815190506200024d8162000222565b92915050565b600063ffffffff82169050919050565b6200026e8162000253565b81146200027a57600080fd5b50565b6000815190506200028e8162000263565b92915050565b60008060008060008060c08789031215620002b457620002b36200012e565b5b6000620002c489828a0162000181565b9650506020620002d789828a01620001c6565b9550506040620002ea89828a0162000201565b9450506060620002fd89828a016200023c565b93505060806200031089828a016200023c565b92505060a06200032389828a016200027d565b9150509295509295509295565b7f4e487b7100000000000000000000000000000000000000000000000000000000600052602160045260246000fd5b60805160a05160c05160e051610100516101205161014051611472620003cf600039600081816102fa01526103f70152600081816107de01526108870152600061069c01526000610658015260006106790152600061061c015260008181610337015261038b01526114726000f3fe6080604052600436106100c25760003560e01c806353a2c19a1161007f57806391ad27b41161005957806391ad27b414610238578063c1c244e814610263578063e55ae4e81461028e578063fd6673f5146102cb576100c2565b806353a2c19a146101a45780635f1b0fd8146101cf5780636e04ff0d146101fa576100c2565b806309bc33a7146100c7578063115cbaf5146100f25780631fe543e31461011d5780632cfcc539146101465780634585e33b14610150578063473f1ddc14610179575b600080fd5b3480156100d357600080fd5b506100dc6102f6565b6040516100e99190610bfc565b60405180910390f35b3480156100fe57600080fd5b5061010761031e565b6040516101149190610c8e565b60405180910390f35b34801561012957600080fd5b50610144600480360381019061013f9190610e42565b610335565b005b61014e6103f5565b005b34801561015c57600080fd5b5061017760048036038101906101729190610ef9565b610564565b005b34801561018557600080fd5b5061018e610755565b60405161019b9190610f87565b60405180910390f35b3480156101b057600080fd5b506101b961077f565b6040516101c69190610bfc565b60405180910390f35b3480156101db57600080fd5b506101e461078e565b6040516101f19190610bfc565b60405180910390f35b34801561020657600080fd5b50610221600480360381019061021c9190611057565b61079b565b60405161022f92919061113a565b60405180910390f35b34801561024457600080fd5b5061024d610883565b60405161025a9190610bfc565b60405180910390f35b34801561026f57600080fd5b506102786108ab565b6040516102859190610bfc565b60405180910390f35b34801561029a57600080fd5b506102b560048036038101906102b0919061116a565b6108b4565b6040516102c29190610f87565b60405180910390f35b3480156102d757600080fd5b506102e06108fc565b6040516102ed9190610bfc565b60405180910390f35b60007f0000000000000000000000000000000000000000000000000000000000000000905090565b6000600360009054906101000a900460ff16905090565b7f000000000000000000000000000000000000000000000000000000000000000073ffffffffffffffffffffffffffffffffffffffff163373ffffffffffffffffffffffffffffffffffffffff16146103e757337f00000000000000000000000000000000000000000000000000000000000000006040517f1cf993f40000000000000000000000000000000000000000000000000000000081526004016103de929190611197565b60405180910390fd5b6103f18282610909565b5050565b7f000000000000000000000000000000000000000000000000000000000000000034101561044f576040517f3038c00a00000000000000000000000000000000000000000000000000000000815260040160405180910390fd5b6000600181111561046357610462610c17565b5b600360009054906101000a900460ff16600181111561048557610484610c17565b5b146104bc576040517fd24a271400000000000000000000000000000000000000000000000000000000815260040160405180910390fd5b6002339080600181540180825580915050600190039060005260206000200160009091909190916101000a81548173ffffffffffffffffffffffffffffffffffffffff021916908373ffffffffffffffffffffffffffffffffffffffff1602179055503373ffffffffffffffffffffffffffffffffffffffff167f0805e1d667bddb8a95f0f09880cf94f403fb596ce79928d9f29b74203ba284d460405160405180910390a2565b600061057e6040518060200160405280600081525061079b565b509050806105ed5747600280549050600360009054906101000a900460ff1660018111156105af576105ae610c17565b5b6040517f584327aa0000000000000000000000000000000000000000000000000000000081526004016105e4939291906111c0565b60405180910390fd5b6001600360006101000a81548160ff0219169083600181111561061357610612610c17565b5b021790555060007f000000000000000000000000000000000000000000000000000000000000000073ffffffffffffffffffffffffffffffffffffffff16635d3b1d307f00000000000000000000000000000000000000000000000000000000000000007f000000000000000000000000000000000000000000000000000000000000000060037f000000000000000000000000000000000000000000000000000000000000000060016040518663ffffffff1660e01b81526004016106dd95949392919061126f565b6020604051808303816000875af11580156106fc573d6000803e3d6000fd5b505050506040513d601f19601f8201168201806040525081019061072091906112d7565b9050807fcd6e45c8998311cab7e9d4385596cac867e20a0587194b954fa3a731c93ce78b60405160405180910390a250505050565b6000600160009054906101000a900473ffffffffffffffffffffffffffffffffffffffff16905090565b6000600163ffffffff16905090565b6000600361ffff16905090565b600060606000600360009054906101000a900460ff1660018111156107c3576107c2610c17565b5b600060018111156107d7576107d6610c17565b5b14905060007f00000000000000000000000000000000000000000000000000000000000000006000544261080b9190611333565b1190506000806002805490501190506000804711905082801561082b5750835b80156108345750805b801561083d5750815b9550856040518060400160405280600381526020017f30783000000000000000000000000000000000000000000000000000000000008152509550955050505050915091565b60007f0000000000000000000000000000000000000000000000000000000000000000905090565b60008054905090565b6000600282815481106108ca576108c9611367565b5b9060005260206000200160009054906101000a900473ffffffffffffffffffffffffffffffffffffffff169050919050565b6000600280549050905090565b60006002805490508260008151811061092557610924611367565b5b602002602001015161093791906113c5565b905060006002828154811061094f5761094e611367565b5b9060005260206000200160009054906101000a900473ffffffffffffffffffffffffffffffffffffffff16905080600160006101000a81548173ffffffffffffffffffffffffffffffffffffffff021916908373ffffffffffffffffffffffffffffffffffffffff160217905550600067ffffffffffffffff8111156109d8576109d7610cff565b5b604051908082528060200260200182016040528015610a065781602001602082028036833780820191505090505b5060029080519060200190610a1c929190610b3c565b506000600360006101000a81548160ff02191690836001811115610a4357610a42610c17565b5b02179055504260008190555060008173ffffffffffffffffffffffffffffffffffffffff1647604051610a7590611427565b60006040518083038185875af1925050503d8060008114610ab2576040519150601f19603f3d011682016040523d82523d6000602084013e610ab7565b606091505b5050905080610af2576040517fa1d04b3900000000000000000000000000000000000000000000000000000000815260040160405180910390fd5b8173ffffffffffffffffffffffffffffffffffffffff167f5b690ec4a06fe979403046eaeea5b3ce38524683c3001f662c8b5a829632f7df60405160405180910390a25050505050565b828054828255906000526020600020908101928215610bb5579160200282015b82811115610bb45782518260006101000a81548173ffffffffffffffffffffffffffffffffffffffff021916908373ffffffffffffffffffffffffffffffffffffffff16021790555091602001919060010190610b5c565b5b509050610bc29190610bc6565b5090565b5b80821115610bdf576000816000905550600101610bc7565b5090565b6000819050919050565b610bf681610be3565b82525050565b6000602082019050610c116000830184610bed565b92915050565b7f4e487b7100000000000000000000000000000000000000000000000000000000600052602160045260246000fd5b60028110610c5757610c56610c17565b5b50565b6000819050610c6882610c46565b919050565b6000610c7882610c5a565b9050919050565b610c8881610c6d565b82525050565b6000602082019050610ca36000830184610c7f565b92915050565b6000604051905090565b600080fd5b600080fd5b610cc681610be3565b8114610cd157600080fd5b50565b600081359050610ce381610cbd565b92915050565b600080fd5b6000601f19601f8301169050919050565b7f4e487b7100000000000000000000000000000000000000000000000000000000600052604160045260246000fd5b610d3782610cee565b810181811067ffffffffffffffff82111715610d5657610d55610cff565b5b80604052505050565b6000610d69610ca9565b9050610d758282610d2e565b919050565b600067ffffffffffffffff821115610d9557610d94610cff565b5b602082029050602081019050919050565b600080fd5b6000610dbe610db984610d7a565b610d5f565b90508083825260208201905060208402830185811115610de157610de0610da6565b5b835b81811015610e0a5780610df68882610cd4565b845260208401935050602081019050610de3565b5050509392505050565b600082601f830112610e2957610e28610ce9565b5b8135610e39848260208601610dab565b91505092915050565b60008060408385031215610e5957610e58610cb3565b5b6000610e6785828601610cd4565b925050602083013567ffffffffffffffff811115610e8857610e87610cb8565b5b610e9485828601610e14565b9150509250929050565b600080fd5b60008083601f840112610eb957610eb8610ce9565b5b8235905067ffffffffffffffff811115610ed657610ed5610e9e565b5b602083019150836001820283011115610ef257610ef1610da6565b5b9250929050565b60008060208385031215610f1057610f0f610cb3565b5b600083013567ffffffffffffffff811115610f2e57610f2d610cb8565b5b610f3a85828601610ea3565b92509250509250929050565b600073ffffffffffffffffffffffffffffffffffffffff82169050919050565b6000610f7182610f46565b9050919050565b610f8181610f66565b82525050565b6000602082019050610f9c6000830184610f78565b92915050565b600080fd5b600067ffffffffffffffff821115610fc257610fc1610cff565b5b610fcb82610cee565b9050602081019050919050565b82818337600083830152505050565b6000610ffa610ff584610fa7565b610d5f565b90508281526020810184848401111561101657611015610fa2565b5b611021848285610fd8565b509392505050565b600082601f83011261103e5761103d610ce9565b5b813561104e848260208601610fe7565b91505092915050565b60006020828403121561106d5761106c610cb3565b5b600082013567ffffffffffffffff81111561108b5761108a610cb8565b5b61109784828501611029565b91505092915050565b60008115159050919050565b6110b5816110a0565b82525050565b600081519050919050565b600082825260208201905092915050565b60005b838110156110f55780820151818401526020810190506110da565b60008484015250505050565b600061110c826110bb565b61111681856110c6565b93506111268185602086016110d7565b61112f81610cee565b840191505092915050565b600060408201905061114f60008301856110ac565b81810360208301526111618184611101565b90509392505050565b6000602082840312156111805761117f610cb3565b5b600061118e84828501610cd4565b91505092915050565b60006040820190506111ac6000830185610f78565b6111b96020830184610f78565b9392505050565b60006060820190506111d56000830186610bed565b6111e26020830185610bed565b6111ef6040830184610bed565b949350505050565b6000819050919050565b61120a816111f7565b82525050565b600067ffffffffffffffff82169050919050565b61122d81611210565b82525050565b600061ffff82169050919050565b61124a81611233565b82525050565b600063ffffffff82169050919050565b61126981611250565b82525050565b600060a0820190506112846000830188611201565b6112916020830187611224565b61129e6040830186611241565b6112ab6060830185611260565b6112b86080830184611260565b9695505050505050565b6000815190506112d181610cbd565b92915050565b6000602082840312156112ed576112ec610cb3565b5b60006112fb848285016112c2565b91505092915050565b7f4e487b7100000000000000000000000000000000000000000000000000000000600052601160045260246000fd5b600061133e82610be3565b915061134983610be3565b925082820390508181111561136157611360611304565b5b92915050565b7f4e487b7100000000000000000000000000000000000000000000000000000000600052603260045260246000fd5b7f4e487b7100000000000000000000000000000000000000000000000000000000600052601260045260246000fd5b60006113d082610be3565b91506113db83610be3565b9250826113eb576113ea611396565b5b828206905092915050565b600081905092915050565b50565b60006114116000836113f6565b915061141c82611401565b600082019050919050565b600061143282611404565b915081905091905056fea2646970667358221220699a1278cdf8ebca9bc74689ff6e38ff7d99c673248e7513187ac0e76d8dce4864736f6c63430008120033",
  "devdoc": {
    "author": "Patrick Collins",
    "details": "This implements the Chainlink VRF Version 2",
    "kind": "dev",
    "methods": {
      "checkUpkeep(bytes)": {
        "details": "This is the function that the Chainlink Keeper nodes call they look for `upkeepNeeded` to return True. the following should be true for this to return true: 1. The time interval has passed between raffle runs. 2. The lottery is open. 3. The contract has ETH. 4. Implicity, your subscription is funded with LINK."
      },
      "performUpkeep(bytes)": {
        "details": "Once `checkUpkeep` is returning `true`, this function is called and it kicks off a Chainlink VRF call to get a random winner."
      }
    },
    "title": "A sample Raffle Contract",
    "version": 1
  },
  "userdoc": {
    "kind": "user",
    "methods": {
      "getRaffleState()": {
        "notice": "Getter Functions "
      }
    },
    "notice": "This contract is for creating a sample raffle contract",
    "version": 1
  },
  "storageLayout": {
    "storage": [
      {
        "astId": 221,
        "contract": "contracts/Raffle.sol:Raffle",
        "label": "s_lastTimeStamp",
        "offset": 0,
        "slot": "0",
        "type": "t_uint256"
      },
      {
        "astId": 223,
        "contract": "contracts/Raffle.sol:Raffle",
        "label": "s_recentWinner",
        "offset": 0,
        "slot": "1",
        "type": "t_address"
      },
      {
        "astId": 226,
        "contract": "contracts/Raffle.sol:Raffle",
        "label": "s_players",
        "offset": 0,
        "slot": "2",
        "type": "t_array(t_address_payable)dyn_storage"
      },
      {
        "astId": 229,
        "contract": "contracts/Raffle.sol:Raffle",
        "label": "s_raffleState",
        "offset": 0,
        "slot": "3",
        "type": "t_enum(RaffleState)200"
      }
    ],
    "types": {
      "t_address": {
        "encoding": "inplace",
        "label": "address",
        "numberOfBytes": "20"
      },
      "t_address_payable": {
        "encoding": "inplace",
        "label": "address payable",
        "numberOfBytes": "20"
      },
      "t_array(t_address_payable)dyn_storage": {
        "base": "t_address_payable",
        "encoding": "dynamic_array",
        "label": "address payable[]",
        "numberOfBytes": "32"
      },
      "t_enum(RaffleState)200": {
        "encoding": "inplace",
        "label": "enum Raffle.RaffleState",
        "numberOfBytes": "1"
      },
      "t_uint256": {
        "encoding": "inplace",
        "label": "uint256",
        "numberOfBytes": "32"
      }
    }
  }
}